{
  "contractName": "InfoContract",
  "abi": [
    {
      "anonymous": false,
      "inputs": [
        {
          "indexed": false,
          "internalType": "string",
          "name": "name",
          "type": "string"
        },
        {
          "indexed": false,
          "internalType": "uint256",
          "name": "age",
          "type": "uint256"
        }
      ],
      "name": "Instructor",
      "type": "event"
    },
    {
      "inputs": [
        {
          "internalType": "string",
          "name": "_name",
          "type": "string"
        },
        {
          "internalType": "uint256",
          "name": "_age",
          "type": "uint256"
        }
      ],
      "name": "setInfo",
      "outputs": [],
      "stateMutability": "nonpayable",
      "type": "function"
    },
    {
      "inputs": [],
      "name": "getInfo",
      "outputs": [
        {
          "internalType": "string",
          "name": "",
          "type": "string"
        },
        {
          "internalType": "uint256",
          "name": "",
          "type": "uint256"
        }
      ],
      "stateMutability": "view",
      "type": "function",
      "constant": true
    }
  ],
  "bytecode": "0x608060405234801561001057600080fd5b50610747806100206000396000f3fe608060405234801561001057600080fd5b5060043610610053576000357c0100000000000000000000000000000000000000000000000000000000900480635a9b0b89146100585780638262963b14610077575b600080fd5b610060610093565b60405161006e92919061022c565b60405180910390f35b610091600480360381019061008c91906103d1565b61012f565b005b60606000806001548180546100a79061045c565b80601f01602080910402602001604051908101604052809291908181526020018280546100d39061045c565b80156101205780601f106100f557610100808354040283529160200191610120565b820191906000526020600020905b81548152906001019060200180831161010357829003601f168201915b50505050509150915091509091565b816000908161013e919061063f565b50806001819055507f010becc10ca1475887c4ec429def1ccc2e9ea1713fe8b0d4e9a1d009042f6b8e828260405161017792919061022c565b60405180910390a15050565b600081519050919050565b600082825260208201905092915050565b60005b838110156101bd5780820151818401526020810190506101a2565b60008484015250505050565b6000601f19601f8301169050919050565b60006101e582610183565b6101ef818561018e565b93506101ff81856020860161019f565b610208816101c9565b840191505092915050565b6000819050919050565b61022681610213565b82525050565b6000604082019050818103600083015261024681856101da565b9050610255602083018461021d565b9392505050565b6000604051905090565b600080fd5b600080fd5b600080fd5b600080fd5b7f4e487b7100000000000000000000000000000000000000000000000000000000600052604160045260246000fd5b6102b2826101c9565b810181811067ffffffffffffffff821117156102d1576102d061027a565b5b80604052505050565b60006102e461025c565b90506102f082826102a9565b919050565b600067ffffffffffffffff8211156103105761030f61027a565b5b610319826101c9565b9050602081019050919050565b82818337600083830152505050565b6000610348610343846102f5565b6102da565b90508281526020810184848401111561036457610363610275565b5b61036f848285610326565b509392505050565b600082601f83011261038c5761038b610270565b5b813561039c848260208601610335565b91505092915050565b6103ae81610213565b81146103b957600080fd5b50565b6000813590506103cb816103a5565b92915050565b600080604083850312156103e8576103e7610266565b5b600083013567ffffffffffffffff8111156104065761040561026b565b5b61041285828601610377565b9250506020610423858286016103bc565b9150509250929050565b7f4e487b7100000000000000000000000000000000000000000000000000000000600052602260045260246000fd5b6000600282049050600182168061047457607f821691505b6020821081036104875761048661042d565b5b50919050565b60008190508160005260206000209050919050565b60006020601f8301049050919050565b60008160020a8302905092915050565b6000600883026104f27fffffffffffffffffffffffffffffffffffffffffffffffffffffffffffffffff826104b2565b6104fc86836104b2565b95508019841693508086168417925050509392505050565b6000819050919050565b600061053961053461052f84610213565b610514565b610213565b9050919050565b6000819050919050565b6105538361051e565b61056761055f82610540565b8484546104c2565b825550505050565b600090565b61057c61056f565b61058781848461054a565b505050565b5b818110156105ab576105a0600082610574565b60018101905061058d565b5050565b601f8211156105f0576105c18161048d565b6105ca846104a2565b810160208510156105d9578190505b6105ed6105e5856104a2565b83018261058c565b50505b505050565b60008160020a8304905092915050565b6000610616600019846008026105f5565b1980831691505092915050565b600061062f8383610605565b9150826002028217905092915050565b61064882610183565b67ffffffffffffffff8111156106615761066061027a565b5b61066b825461045c565b6106768282856105af565b600060209050601f8311600181146106a95760008415610697578287015190505b6106a18582610623565b865550610709565b601f1984166106b78661048d565b60005b828110156106df578489015182556001820191506020850194506020810190506106ba565b868310156106fc57848901516106f8601f891682610605565b8355505b6001600288020188555050505b50505050505056fea2646970667358221220ac65e6bbfe024a6da9783f205686bc32876ed7a68028317cf11538eea02d1eec64736f6c63430008140033",
  "immutableReferences": {},
  "source": "// SPDX-License-Identifier: SEE LICENSE IN LICENSE\npragma solidity >= 0.4.22 <0.9.0;\n\ncontract InfoContract {\n  string name;\n  uint256 age;\n\n  event Instructor(string name, uint256 age);\n\n  function setInfo(string memory _name, uint256 _age) public {\n    name = _name;\n    age = _age;\n    emit Instructor(_name, _age);\n  }\n\n  function getInfo() public view returns(string memory, uint256){\n    return(name, age);\n  }\n}",
  "sourcePath": "/Users/chenyangmin/learn-source/learn_web3/first_truffle/contracts/InfoContract.sol",
  "compiler": {
    "name": "solc",
    "version": "0.8.20+commit.a1b79de6.Emscripten.clang"
  },
  "schemaVersion": "3.4.16",
  "updatedAt": "2025-06-11T02:40:45.617Z",
  "networkType": "ethereum",
  "devdoc": {
    "kind": "dev",
    "methods": {},
    "version": 1
  },
  "userdoc": {
    "kind": "user",
    "methods": {},
    "version": 1
  }
}